:1000000001308A004B290000FF00030E8301A50088
:100010007F08A4000A08AB008A01A40E0408A60009
:100020002008A7002108A8002208A9002308AA0088
:10003000831383128B1E1E280B1944282608840064
:100040002708A0002808A1002908A2002A08A30068
:100050002B088A00250E8300FF0E7F0E09000A1070
:100060008A100A1182073F3406345B344F346634F9
:100070006D347D3407347F346F340A108A100A11CE
:10008000820720344034803483168601E0308312A6
:1000900086003F30870000002F08023C031CAF01A0
:1000A0002C302F078400000887002F083D20E03AFD
:1000B000C90083168601831249088600AF0A0B1116
:1000C0008A111E287030831686008601E030831264
:1000D00086008030831687003730831287008316AE
:1000E0000108C03902388100383083128100C030E5
:1000F0008B048B166C2983187F2844308400A00160
:10010000A101A201A301C401C501C601C7014308A1
:100110004204410440040319BD282030C8000310E4
:10012000BC0DBD0DBE0DBF0DC40DC50DC60DC70D5B
:1001300043084702031DA62842084602031DA628BD
:1001400041084502031DA62840084402031CB728A5
:100150004008C4024108031C410FC5024208031CA9
:10016000420FC6024308031C430FC7020314A00D2D
:10017000A10DA20DA30DC80B8F2844088000840A8E
:1001800045088000840A46088000840A47088000E9
:10019000080083103308BF003208BE003108BD00DC
:1001A0003008BC00C301C201C1016430C0007B2023
:1001B0002308B7002208B6002108B5002008B400C3
:1001C000A0002108A1002208A2002308A300200803
:1001D0002F20A100AC0083103308BF003208BE00FE
:1001E0003108BD003008BC00C301C201C1010A30A2
:1001F000C0007B202308B7002208B6002108B50004
:100200002008B4008314383084002308BF0022087B
:10021000BE002108BD002008BC00C301C201C1010D
:100220000A30C0007B203B08B7003A08B600390806
:10023000B5003808B400A0003908A1003A08A200AF
:100240003B08A30020082F20A100AD008314343008
:1002500084003308BF003208BE003108BD003008FA
:10026000BC00C301C201C1010A30C0007B203708B5
:10027000BB003608BA003508B9003408B800A00041
:100280003508A1003608A2003708A30020082F2057
:10029000A100AE00722903081F3983007130831654
:1002A0008F0090010F08831203171F109F101F115A
:1002B0009F1103131F13003003179E0099019A0129
:1002C00083169E0183129B0103138D127F30AC00B5
:1002D000AD00AE00AF016228B301B201B1017B30C5
:0802E000B000C9286C2963007D
:02400E00C43FAD
:00000001FF
;PIC16F677
;CRC=5487  CREATED="26-Dec-23 15:19"
